{
  "_format": "hh-sol-artifact-1",
  "contractName": "EIP712Domain",
  "sourceName": "src1/contracts/EIP712Domain.sol",
  "abi": [
    {
      "inputs": [],
      "name": "DOMAIN_SEPARATOR",
      "outputs": [
        {
          "internalType": "bytes32",
          "name": "",
          "type": "bytes32"
        }
      ],
      "stateMutability": "view",
      "type": "function"
    }
  ],
  "bytecode": "0x6080604052348015600f57600080fd5b5060818061001e6000396000f3fe6080604052348015600f57600080fd5b506004361060285760003560e01c80633644e51514602d575b600080fd5b60336045565b60408051918252519081900360200190f35b6000548156fea264697066735822122045f7cd62efbcc816946d3f5dfb793e2a3e84fb791d799e6d645cc9290e342c6564736f6c634300060c0033",
  "linkReferences": {},
  "deployedLinkReferences": {}
}